{
  "contractName": "AuctionStore",
  "abi": [
    {
      "constant": true,
      "inputs": [
        {
          "name": "_userAddr",
          "type": "address"
        }
      ],
      "name": "getUser",
      "outputs": [
        {
          "name": "exists",
          "type": "bool"
        },
        {
          "name": "isFarmer",
          "type": "bool"
        },
        {
          "name": "name",
          "type": "string"
        }
      ],
      "payable": false,
      "stateMutability": "view",
      "type": "function"
    },
    {
      "constant": false,
      "inputs": [
        {
          "name": "name",
          "type": "string"
        },
        {
          "name": "_isFarmer",
          "type": "bool"
        },
        {
          "name": "_creditScore",
          "type": "int256"
        }
      ],
      "name": "signup",
      "outputs": [],
      "payable": false,
      "stateMutability": "nonpayable",
      "type": "function"
    },
    {
      "constant": true,
      "inputs": [
        {
          "name": "",
          "type": "address"
        }
      ],
      "name": "users",
      "outputs": [
        {
          "name": "name",
          "type": "string"
        },
        {
          "name": "isfarmer",
          "type": "bool"
        },
        {
          "name": "creditScore",
          "type": "int256"
        },
        {
          "name": "exists",
          "type": "bool"
        }
      ],
      "payable": false,
      "stateMutability": "view",
      "type": "function"
    },
    {
      "constant": true,
      "inputs": [],
      "name": "login",
      "outputs": [
        {
          "name": "",
          "type": "string"
        }
      ],
      "payable": false,
      "stateMutability": "view",
      "type": "function"
    },
    {
      "anonymous": false,
      "inputs": [
        {
          "indexed": false,
          "name": "_auctionid",
          "type": "string"
        },
        {
          "indexed": false,
          "name": "_farmer",
          "type": "address"
        },
        {
          "indexed": false,
          "name": "_status",
          "type": "uint256"
        }
      ],
      "name": "LogAuctionAdd",
      "type": "event"
    },
    {
      "anonymous": false,
      "inputs": [
        {
          "indexed": false,
          "name": "_auctionid",
          "type": "string"
        },
        {
          "indexed": false,
          "name": "_bidder",
          "type": "address"
        },
        {
          "indexed": false,
          "name": "_val",
          "type": "uint256"
        }
      ],
      "name": "LogBidPlace",
      "type": "event"
    },
    {
      "constant": false,
      "inputs": [
        {
          "name": "_startBlock",
          "type": "uint256"
        },
        {
          "name": "_endBlock",
          "type": "uint256"
        },
        {
          "name": "_name",
          "type": "string"
        },
        {
          "name": "_reserve",
          "type": "uint256"
        },
        {
          "name": "_auctionid",
          "type": "string"
        },
        {
          "name": "_ipfsHash",
          "type": "string"
        },
        {
          "name": "_associatedBank",
          "type": "address"
        },
        {
          "name": "_totalValue",
          "type": "uint256"
        }
      ],
      "name": "startAuction",
      "outputs": [],
      "payable": true,
      "stateMutability": "payable",
      "type": "function"
    },
    {
      "constant": false,
      "inputs": [
        {
          "name": "_auctionid",
          "type": "string"
        }
      ],
      "name": "placeBid",
      "outputs": [],
      "payable": true,
      "stateMutability": "payable",
      "type": "function"
    },
    {
      "constant": true,
      "inputs": [],
      "name": "getAllAuctions",
      "outputs": [
        {
          "name": "commaSepBidIds",
          "type": "string"
        }
      ],
      "payable": false,
      "stateMutability": "view",
      "type": "function"
    },
    {
      "constant": true,
      "inputs": [
        {
          "name": "_auctionid",
          "type": "string"
        }
      ],
      "name": "getAuctionDetById",
      "outputs": [
        {
          "name": "name",
          "type": "string"
        },
        {
          "name": "owner",
          "type": "address"
        },
        {
          "name": "status",
          "type": "uint256"
        },
        {
          "name": "reserve",
          "type": "uint256"
        },
        {
          "name": "highestBid",
          "type": "uint256"
        },
        {
          "name": "highestBidder",
          "type": "address"
        },
        {
          "name": "winner",
          "type": "address"
        },
        {
          "name": "associatedBank",
          "type": "address"
        }
      ],
      "payable": false,
      "stateMutability": "view",
      "type": "function"
    }
  ],
  "bytecode": "0x6080604052613051806100136000396000f30060806040526004361061008e576000357c0100000000000000000000000000000000000000000000000000000000900463ffffffff168063273e15a8146100935780636f77926b146101395780639fbeca201461020b578063a6d491f0146103ce578063a87430ba1461044d578063b34e97e814610526578063cbd2bdfd146105b6578063e967e60c14610646575b600080fd5b610137600480360381019080803590602001909291908035906020019092919080359060200190820180359060200191909192939192939080359060200190929190803590602001908201803590602001919091929391929390803590602001908201803590602001919091929391929390803573ffffffffffffffffffffffffffffffffffffffff16906020019092919080359060200190929190505050610674565b005b34801561014557600080fd5b5061017a600480360381019080803573ffffffffffffffffffffffffffffffffffffffff169060200190929190505050611257565b60405180841515151581526020018315151515815260200180602001828103825283818151815260200191508051906020019080838360005b838110156101ce5780820151818401526020810190506101b3565b50505050905090810190601f1680156101fb5780820380516001836020036101000a031916815260200191505b5094505050505060405180910390f35b34801561021757600080fd5b50610272600480360381019080803590602001908201803590602001908080601f01602080910402602001604051908101604052809392919081815260200183838082843782019150505050505091929192905050506113e4565b60405180806020018973ffffffffffffffffffffffffffffffffffffffff1673ffffffffffffffffffffffffffffffffffffffff1681526020018881526020018781526020018681526020018573ffffffffffffffffffffffffffffffffffffffff1673ffffffffffffffffffffffffffffffffffffffff1681526020018473ffffffffffffffffffffffffffffffffffffffff1673ffffffffffffffffffffffffffffffffffffffff1681526020018373ffffffffffffffffffffffffffffffffffffffff1673ffffffffffffffffffffffffffffffffffffffff16815260200182810382528a818151815260200191508051906020019080838360005b8381101561038c578082015181840152602081019050610371565b50505050905090810190601f1680156103b95780820380516001836020036101000a031916815260200191505b50995050505050505050505060405180910390f35b3480156103da57600080fd5b5061044b600480360381019080803590602001908201803590602001908080601f0160208091040260200160405190810160405280939291908181526020018383808284378201915050505050509192919290803515159060200190929190803590602001909291905050506119a6565b005b34801561045957600080fd5b5061048e600480360381019080803573ffffffffffffffffffffffffffffffffffffffff169060200190929190505050611b7c565b60405180806020018515151515815260200184815260200183151515158152602001828103825286818151815260200191508051906020019080838360005b838110156104e85780820151818401526020810190506104cd565b50505050905090810190601f1680156105155780820380516001836020036101000a031916815260200191505b509550505050505060405180910390f35b34801561053257600080fd5b5061053b611c5e565b6040518080602001828103825283818151815260200191508051906020019080838360005b8381101561057b578082015181840152602081019050610560565b50505050905090810190601f1680156105a85780820380516001836020036101000a031916815260200191505b509250505060405180910390f35b3480156105c257600080fd5b506105cb611d9b565b6040518080602001828103825283818151815260200191508051906020019080838360005b8381101561060b5780820151818401526020810190506105f0565b50505050905090810190601f1680156106385780820380516001836020036101000a031916815260200191505b509250505060405180910390f35b610672600480360381019080803590602001908201803590602001919091929391929390505050611e8c565b005b6000600560003373ffffffffffffffffffffffffffffffffffffffff1673ffffffffffffffffffffffffffffffffffffffff16815260200190815260200160002060040160009054906101000a900460ff1615156106d157600080fd5b600560003373ffffffffffffffffffffffffffffffffffffffff1673ffffffffffffffffffffffffffffffffffffffff16815260200190815260200160002060010160009054906101000a900460ff161515610795576040517f08c379a00000000000000000000000000000000000000000000000000000000081526004018080602001828103825260178152602001807f43616c6c6572206973206e6f742061206661726d65722100000000000000000081525060200191505060405180910390fd5b8b8b111515610832576040517f08c379a00000000000000000000000000000000000000000000000000000000081526004018080602001828103825260288152602001807f456e6474696d652063616e206e6f74206265206c657373207468616e2073746181526020017f72742074696d652100000000000000000000000000000000000000000000000081525060400191505060405180910390fd5b438c1115156108cf576040517f08c379a000000000000000000000000000000000000000000000000000000000815260040180806020018281038252602a8152602001807f53746172742073686f756c642062652067726561746572207468616e2063757281526020017f72656e742074696d65210000000000000000000000000000000000000000000081525060400191505060405180910390fd5b6008878760405180838380828437820191505092505050908152602001604051809103902060060160009054906101000a900460ff1615151561097a576040517f08c379a00000000000000000000000000000000000000000000000000000000081526004018080602001828103825260178152602001807f41756374696f6e20616c7265616479206578697374732100000000000000000081525060200191505060405180910390fd5b610200604051908101604052808b8b8080601f01602080910402602001604051908101604052809392919081815260200183838082843782019150505050505081526020018981526020018d81526020018c81526020013373ffffffffffffffffffffffffffffffffffffffff16815260200188888080601f0160208091040260200160405190810160405280939291908181526020018383808284378201915050505050508152602001600115158152602001600081526020016000604051908082528060200260200182016040528015610a655781602001602082028038833980820191505090505b50815260200186868080601f016020809104026020016040519081016040528093929190818152602001838380828437820191505050505050815260200160008152602001600073ffffffffffffffffffffffffffffffffffffffff168152602001600073ffffffffffffffffffffffffffffffffffffffff16815260200160016004811115610af157fe5b8152602001670de0b6b3a7640000840281526020018473ffffffffffffffffffffffffffffffffffffffff16815250600b6000820151816000019080519060200190610b3e929190612be2565b5060208201518160010155604082015181600201556060820151816003015560808201518160040160006101000a81548173ffffffffffffffffffffffffffffffffffffffff021916908373ffffffffffffffffffffffffffffffffffffffff16021790555060a0820151816005019080519060200190610bc0929190612be2565b5060c08201518160060160006101000a81548160ff02191690831515021790555060e08201518160070155610100820151816008019080519060200190610c08929190612c62565b50610120820151816009019080519060200190610c26929190612be2565b5061014082015181600b015561016082015181600c0160006101000a81548173ffffffffffffffffffffffffffffffffffffffff021916908373ffffffffffffffffffffffffffffffffffffffff16021790555061018082015181600d0160006101000a81548173ffffffffffffffffffffffffffffffffffffffff021916908373ffffffffffffffffffffffffffffffffffffffff1602179055506101a082015181600d0160146101000a81548160ff02191690836004811115610ce757fe5b02179055506101c082015181600e01556101e082015181600f0160006101000a81548173ffffffffffffffffffffffffffffffffffffffff021916908373ffffffffffffffffffffffffffffffffffffffff160217905550905050600a878790918060018154018082558091505090600182039060005260206000200160009091929390919293909192909192509190610d82929190612cec565b5050600b6008888860405180838380828437820191505092505050908152602001604051809103902060008201816000019080546001816001161561010002031660029004610dd2929190612d6c565b506001820154816001015560028201548160020155600382015481600301556004820160009054906101000a900473ffffffffffffffffffffffffffffffffffffffff168160040160006101000a81548173ffffffffffffffffffffffffffffffffffffffff021916908373ffffffffffffffffffffffffffffffffffffffff16021790555060058201816005019080546001816001161561010002031660029004610e7f929190612d6c565b506006820160009054906101000a900460ff168160060160006101000a81548160ff021916908315150217905550600782015481600701556008820181600801908054610ecd929190612df3565b5060098201816009019080546001816001161561010002031660029004610ef5929190612d6c565b50600b82015481600b0155600c820160009054906101000a900473ffffffffffffffffffffffffffffffffffffffff1681600c0160006101000a81548173ffffffffffffffffffffffffffffffffffffffff021916908373ffffffffffffffffffffffffffffffffffffffff160217905550600d820160009054906101000a900473ffffffffffffffffffffffffffffffffffffffff1681600d0160006101000a81548173ffffffffffffffffffffffffffffffffffffffff021916908373ffffffffffffffffffffffffffffffffffffffff160217905550600d820160149054906101000a900460ff1681600d0160146101000a81548160ff02191690836004811115610fff57fe5b0217905550600e82015481600e0155600f820160009054906101000a900473ffffffffffffffffffffffffffffffffffffffff1681600f0160006101000a81548173ffffffffffffffffffffffffffffffffffffffff021916908373ffffffffffffffffffffffffffffffffffffffff160217905550905050600760003373ffffffffffffffffffffffffffffffffffffffff1673ffffffffffffffffffffffffffffffffffffffff1681526020019081526020016000208787909180600181540180825580915050906001820390600052602060002001600090919293909192939091929091925091906110f5929190612cec565b5050600560003373ffffffffffffffffffffffffffffffffffffffff1673ffffffffffffffffffffffffffffffffffffffff168152602001908152602001600020600301878790918060018154018082558091505090600182039060005260206000200160009091929390919293909192909192509190611177929190612cec565b505060088787604051808383808284378201915050925050509081526020016040518091039020600d0160149054906101000a900460ff1660048111156111ba57fe5b90507f70b588e35513d2fce1556a350c385885c8c646b68b149b8d9f823250b6feb54a8787338460405180806020018473ffffffffffffffffffffffffffffffffffffffff1673ffffffffffffffffffffffffffffffffffffffff168152602001838152602001828103825286868281815260200192508082843782019150509550505050505060405180910390a1505050505050505050505050565b6000806060600560008573ffffffffffffffffffffffffffffffffffffffff1673ffffffffffffffffffffffffffffffffffffffff16815260200190815260200160002060040160009054906101000a900460ff169250600560008573ffffffffffffffffffffffffffffffffffffffff1673ffffffffffffffffffffffffffffffffffffffff16815260200190815260200160002060010160009054906101000a900460ff169150600560008573ffffffffffffffffffffffffffffffffffffffff1673ffffffffffffffffffffffffffffffffffffffff1681526020019081526020016000206000018054600181600116156101000203166002900480601f0160208091040260200160405190810160405280929190818152602001828054600181600116156101000203166002900480156113d65780601f106113ab576101008083540402835291602001916113d6565b820191906000526020600020905b8154815290600101906020018083116113b957829003601f168201915b505050505090509193909250565b60606000806000806000806000886008816040518082805190602001908083835b60208310151561142a5780518252602082019150602081019050602083039250611405565b6001836020036101000a038019825116818451168082178552505050505050905001915050908152602001604051809103902060060160009054906101000a900460ff1615156114e2576040517f08c379a000000000000000000000000000000000000000000000000000000000815260040180806020018281038252601a8152602001807f41756374696f6e496420646f6573206e6f74206578697374732100000000000081525060200191505060405180910390fd5b60088a6040518082805190602001908083835b60208310151561151a57805182526020820191506020810190506020830392506114f5565b6001836020036101000a03801982511681845116808217855250505050505090500191505090815260200160405180910390206000018054600181600116156101000203166002900480601f0160208091040260200160405190810160405280929190818152602001828054600181600116156101000203166002900480156115e45780601f106115b9576101008083540402835291602001916115e4565b820191906000526020600020905b8154815290600101906020018083116115c757829003601f168201915b5050505050985060088a6040518082805190602001908083835b60208310151561162357805182526020820191506020810190506020830392506115fe565b6001836020036101000a038019825116818451168082178552505050505050905001915050908152602001604051809103902060040160009054906101000a900473ffffffffffffffffffffffffffffffffffffffff16975060088a6040518082805190602001908083835b6020831015156116b4578051825260208201915060208101905060208303925061168f565b6001836020036101000a0380198251168184511680821785525050505050509050019150509081526020016040518091039020600d0160149054906101000a900460ff16600481111561170357fe5b965060088a6040518082805190602001908083835b60208310151561173d5780518252602082019150602081019050602083039250611718565b6001836020036101000a038019825116818451168082178552505050505050905001915050908152602001604051809103902060010154955060088a6040518082805190602001908083835b6020831015156117ae5780518252602082019150602081019050602083039250611789565b6001836020036101000a0380198251168184511680821785525050505050509050019150509081526020016040518091039020600b0154945060088a6040518082805190602001908083835b60208310151561181f57805182526020820191506020810190506020830392506117fa565b6001836020036101000a0380198251168184511680821785525050505050509050019150509081526020016040518091039020600c0160009054906101000a900473ffffffffffffffffffffffffffffffffffffffff16935060088a6040518082805190602001908083835b6020831015156118b0578051825260208201915060208101905060208303925061188b565b6001836020036101000a0380198251168184511680821785525050505050509050019150509081526020016040518091039020600d0160009054906101000a900473ffffffffffffffffffffffffffffffffffffffff16925060088a6040518082805190602001908083835b602083101515611941578051825260208201915060208101905060208303925061191c565b6001836020036101000a0380198251168184511680821785525050505050509050019150509081526020016040518091039020600f0160009054906101000a900473ffffffffffffffffffffffffffffffffffffffff16915050919395975091939597565b60a060405190810160405280848152602001831515815260200182815260200160006040519080825280602002602001820160405280156119fb57816020015b60608152602001906001900390816119e65790505b50815260200160011515815250600080820151816000019080519060200190611a25929190612be2565b5060208201518160010160006101000a81548160ff021916908315150217905550604082015181600201556060820151816003019080519060200190611a6c929190612e45565b5060808201518160040160006101000a81548160ff0219169083151502179055509050506000600560003373ffffffffffffffffffffffffffffffffffffffff1673ffffffffffffffffffffffffffffffffffffffff16815260200190815260200160002060008201816000019080546001816001161561010002031660029004611af8929190612d6c565b506001820160009054906101000a900460ff168160010160006101000a81548160ff021916908315150217905550600282015481600201556003820181600301908054611b46929190612ea5565b506004820160009054906101000a900460ff168160040160006101000a81548160ff021916908315150217905550905050505050565b6005602052806000526040600020600091509050806000018054600181600116156101000203166002900480601f016020809104026020016040519081016040528092919081815260200182805460018160011615610100020316600290048015611c285780601f10611bfd57610100808354040283529160200191611c28565b820191906000526020600020905b815481529060010190602001808311611c0b57829003601f168201915b5050505050908060010160009054906101000a900460ff16908060020154908060040160009054906101000a900460ff16905084565b6060600560003373ffffffffffffffffffffffffffffffffffffffff1673ffffffffffffffffffffffffffffffffffffffff16815260200190815260200160002060040160009054906101000a900460ff161515611cbb57600080fd5b600560003373ffffffffffffffffffffffffffffffffffffffff1673ffffffffffffffffffffffffffffffffffffffff1681526020019081526020016000206000018054600181600116156101000203166002900480601f016020809104026020016040519081016040528092919081815260200182805460018160011615610100020316600290048015611d915780601f10611d6657610100808354040283529160200191611d91565b820191906000526020600020905b815481529060010190602001808311611d7457829003601f168201915b5050505050905090565b6060611e87600a805480602002602001604051908101604052809291908181526020016000905b82821015611e7e578382906000526020600020018054600181600116156101000203166002900480601f016020809104026020016040519081016040528092919081815260200182805460018160011615610100020316600290048015611e6a5780601f10611e3f57610100808354040283529160200191611e6a565b820191906000526020600020905b815481529060010190602001808311611e4d57829003601f168201915b505050505081526020019060010190611dc2565b50505050612904565b905090565b600082828080601f0160208091040260200160405190810160405280939291908181526020018383808284378201915050505050506008816040518082805190602001908083835b602083101515611ef95780518252602082019150602081019050602083039250611ed4565b6001836020036101000a038019825116818451168082178552505050505050905001915050908152602001604051809103902060060160009054906101000a900460ff161515611fb1576040517f08c379a000000000000000000000000000000000000000000000000000000000815260040180806020018281038252601a8152602001807f41756374696f6e496420646f6573206e6f74206578697374732100000000000081525060200191505060405180910390fd5b83838080601f01602080910402602001604051908101604052809392919081815260200183838082843782019150505050505060016004811115611ff157fe5b6008826040518082805190602001908083835b6020831015156120295780518252602082019150602081019050602083039250612004565b6001836020036101000a0380198251168184511680821785525050505050509050019150509081526020016040518091039020600d0160149054906101000a900460ff16600481111561207857fe5b1415156120ed576040517f08c379a00000000000000000000000000000000000000000000000000000000081526004018080602001828103825260178152602001807f41756374696f6e206973206e6f7420737461727465642100000000000000000081525060200191505060405180910390fd5b84848080601f0160208091040260200160405190810160405280939291908181526020018383808284378201915050505050506002600481111561212d57fe5b6008826040518082805190602001908083835b6020831015156121655780518252602082019150602081019050602083039250612140565b6001836020036101000a0380198251168184511680821785525050505050509050019150509081526020016040518091039020600d0160149054906101000a900460ff1660048111156121b457fe5b1415151561222a576040517f08c379a00000000000000000000000000000000000000000000000000000000081526004018080602001828103825260158152602001807f41756374696f6e2069732063616e63656c6c656421000000000000000000000081525060200191505060405180910390fd5b85858080601f0160208091040260200160405190810160405280939291908181526020018383808284378201915050505050506008816040518082805190602001908083835b6020831015156122955780518252602082019150602081019050602083039250612270565b6001836020036101000a03801982511681845116808217855250505050505090500191505090815260200160405180910390206002015443111515612342576040517f08c379a000000000000000000000000000000000000000000000000000000000815260040180806020018281038252601d8152602001807f41756374696f6e20686173206e6f74206265656e20737461727465642100000081525060200191505060405180910390fd5b86868080601f0160208091040260200160405190810160405280939291908181526020018383808284378201915050505050506008816040518082805190602001908083835b6020831015156123ad5780518252602082019150602081019050602083039250612388565b6001836020036101000a0380198251168184511680821785525050505050509050019150509081526020016040518091039020600301544310151561245a576040517f08c379a00000000000000000000000000000000000000000000000000000000081526004018080602001828103825260148152602001807f41756374696f6e2069732066696e69736865642100000000000000000000000081525060200191505060405180910390fd5b60003411151561246957600080fd5b346009898960405180838380828437820191505092505050908152602001604051809103902060003373ffffffffffffffffffffffffffffffffffffffff1673ffffffffffffffffffffffffffffffffffffffff1681526020019081526020016000205401955060088888604051808383808284378201915050925050509081526020016040518091039020600b01548610151515612596576040517f08c379a00000000000000000000000000000000000000000000000000000000081526004018080602001828103825260368152602001807f42696464696e6720616d6f756e742073686f756c64206265206772656174657281526020017f207468616e20746865206869676865737420626964210000000000000000000081525060400191505060405180910390fd5b8560088989604051808383808284378201915050925050509081526020016040518091039020600b01819055503360088989604051808383808284378201915050925050509081526020016040518091039020600c0160006101000a81548173ffffffffffffffffffffffffffffffffffffffff021916908373ffffffffffffffffffffffffffffffffffffffff160217905550856009898960405180838380828437820191505092505050908152602001604051809103902060003373ffffffffffffffffffffffffffffffffffffffff1673ffffffffffffffffffffffffffffffffffffffff1681526020019081526020016000208190555060088888604051808383808284378201915050925050509081526020016040518091039020600a0160003373ffffffffffffffffffffffffffffffffffffffff1673ffffffffffffffffffffffffffffffffffffffff16815260200190815260200160002060009054906101000a900460ff16151561279757600888886040518083838082843782019150509250505090815260200160405180910390206008013390806001815401808255809150509060018203906000526020600020016000909192909190916101000a81548173ffffffffffffffffffffffffffffffffffffffff021916908373ffffffffffffffffffffffffffffffffffffffff160217905550505b60088888604051808383808284378201915050925050509081526020016040518091039020600801805490506008898960405180838380828437820191505092505050908152602001604051809103902060070181905550600160088989604051808383808284378201915050925050509081526020016040518091039020600a0160003373ffffffffffffffffffffffffffffffffffffffff1673ffffffffffffffffffffffffffffffffffffffff16815260200190815260200160002060006101000a81548160ff0219169083151502179055507fa6ed96dd1cf8ead971dde033e08f735054633edebd8ba7a3d478d5c06962cb558888333460405180806020018473ffffffffffffffffffffffffffffffffffffffff1673ffffffffffffffffffffffffffffffffffffffff168152602001838152602001828103825286868281815260200192508082843782019150509550505050505060405180910390a15050505050505050565b6060806000835160405190808252806020026020018201604052801561294457816020015b612931612f15565b8152602001906001900390816129295790505b509150600090505b83518163ffffffff1610156129af57612981848263ffffffff1681518110151561297257fe5b90602001906020020151612a08565b828263ffffffff1681518110151561299557fe5b90602001906020020181905250808060010191505061294c565b6129ff826129f16040805190810160405280600181526020017f7c00000000000000000000000000000000000000000000000000000000000000815250612a08565b612a3690919063ffffffff16565b92505050919050565b612a10612f2f565b600060208301905060408051908101604052808451815260200182815250915050919050565b6060600080606060008086511415612a605760206040519081016040528060008152509450612b8d565b60018651038760000151029350600092505b8551831015612aa8578583815181101515612a8957fe5b9060200190602002015160000151840193508280600101935050612a72565b836040519080825280601f01601f191660200182016040528015612adb5781602001602082028038833980820191505090505b509150602082019050600092505b8551831015612b8957612b33818785815181101515612b0457fe5b90602001906020020151602001518886815181101515612b2057fe5b9060200190602002015160000151612b97565b8583815181101515612b4157fe5b9060200190602002015160000151810190506001865103831015612b7c57612b728188602001518960000151612b97565b8660000151810190505b8280600101935050612ae9565b8194505b5050505092915050565b60005b602082101515612bbf5782518452602084019350602083019250602082039150612b9a565b6001826020036101000a0390508019835116818551168181178652505050505050565b828054600181600116156101000203166002900490600052602060002090601f016020900481019282601f10612c2357805160ff1916838001178555612c51565b82800160010185558215612c51579182015b82811115612c50578251825591602001919060010190612c35565b5b509050612c5e9190612f49565b5090565b828054828255906000526020600020908101928215612cdb579160200282015b82811115612cda5782518260006101000a81548173ffffffffffffffffffffffffffffffffffffffff021916908373ffffffffffffffffffffffffffffffffffffffff16021790555091602001919060010190612c82565b5b509050612ce89190612f6e565b5090565b828054600181600116156101000203166002900490600052602060002090601f016020900481019282601f10612d2d57803560ff1916838001178555612d5b565b82800160010185558215612d5b579182015b82811115612d5a578235825591602001919060010190612d3f565b5b509050612d689190612f49565b5090565b828054600181600116156101000203166002900490600052602060002090601f016020900481019282601f10612da55780548555612de2565b82800160010185558215612de257600052602060002091601f016020900482015b82811115612de1578254825591600101919060010190612dc6565b5b509050612def9190612f49565b5090565b828054828255906000526020600020908101928215612e345760005260206000209182015b82811115612e33578254825591600101919060010190612e18565b5b509050612e419190612f6e565b5090565b828054828255906000526020600020908101928215612e94579160200282015b82811115612e93578251829080519060200190612e83929190612be2565b5091602001919060010190612e65565b5b509050612ea19190612fb1565b5090565b828054828255906000526020600020908101928215612f045760005260206000209182015b82811115612f035782829080546001816001161561010002031660029004612ef3929190612d6c565b5091600101919060010190612eca565b5b509050612f119190612fb1565b5090565b604080519081016040528060008152602001600081525090565b604080519081016040528060008152602001600081525090565b612f6b91905b80821115612f67576000816000905550600101612f4f565b5090565b90565b612fae91905b80821115612faa57600081816101000a81549073ffffffffffffffffffffffffffffffffffffffff021916905550600101612f74565b5090565b90565b612fda91905b80821115612fd65760008181612fcd9190612fdd565b50600101612fb7565b5090565b90565b50805460018160011615610100020316600290046000825580601f106130035750613022565b601f0160209004906000526020600020908101906130219190612f49565b5b505600a165627a7a7230582089aecefead19712fcc196ff97dd2d1bbdc9a4c3482b077749d4c620af59a0fec0029",
  "source": "pragma solidity ^0.4.7;\n\nimport \"./libs/AuctionLib.sol\";\nimport \"./libs/strings.sol\";\nimport \"./interfaces/AuctionInterface.sol\";\nimport \"./Authentication.sol\";\n\n\ncontract AuctionStore is AuctionInterface, Authentication {\n    using strings for *;\n\n    mapping(address => string[]) FarmerAuctionsMap;\n    mapping(string => AuctionLib.Auction) AuctionsMap;\n    mapping(string => mapping(address => uint)) BidderFundsMap;\n    string[] AllAuctionIds;\n\n    AuctionLib.Auction auctionObj;\n    \n    \n    modifier onlyAuctionExists(string _auctionid){\n        // check if auction exists\n        require(AuctionsMap[_auctionid].exists, \"AuctionId does not exists!\");\n        _;\n    }\n    \n    modifier onlyStartedAuction(string _auctionid){\n        // check if auction should be active  \n        require(AuctionsMap[_auctionid].status == AuctionLib.Status.STARTED, \"Auction is not started!\");\n        _;\n    }\n    \n    modifier onlyNotCancelledAuction(string _auctionid){\n        // check if auction should be isCancelled  \n        require(AuctionsMap[_auctionid].status != AuctionLib.Status.CANCELLED, \"Auction is cancelled!\");\n        _;\n    }\n    \n    modifier onlyNotBiddedAuction(string _auctionid){\n        //check if already bidder alreay bidded?\n        require(!AuctionsMap[_auctionid].alreadyBidded[msg.sender], \"Already bidded for this auction!\");\n        _;\n    }\n    \n    modifier onlyAfterStartAuction(string _auctionid){\n        // should be allowed after Auction startBlock\n        require(block.number > AuctionsMap[_auctionid].startBlock,\"Auction has not been started!\");\n        _;\n    }\n    \n    modifier onlyBeforeEndAuction(string _auctionid){\n        // should be allowed before auction endBlock\n        require(block.number < AuctionsMap[_auctionid].endBlock,\"Auction is finished!\");\n        _;\n    }\n\n    modifier onlyAfterEndAuction(string _auctionid){\n        require(block.number > AuctionsMap[_auctionid].endBlock, \"Auction is still going on!\");\n        _;\n    }\n    modifier onlyOwner(string _auctionid){\n        require(users[msg.sender].isfarmer && AuctionsMap[_auctionid].owner == msg.sender, \"Caller is not the owner of Auction!\");\n        _;\n    }\n\n    \n    \n    \n    // uint PRECESION;\n    // uint MINPERDEPFARMER;\n    // uint MINPERDEPBIDDER\n\n    \n    // constructor(uint _precision, uint _perDepFarmer, uint _perDepBidder) public{\n        \n    // }\n    \n    function startAuction(uint _startBlock,\n        uint _endBlock, \n        string _name, \n        uint _reserve, \n        string _auctionid, \n        string _ipfsHash,  \n        address _associatedBank,\n        uint _totalValue) \n    external \n    onlyExistingUser\n    onlyFarmer\n    payable{\n        \n        require(_endBlock > _startBlock, \"Endtime can not be less than start time!\");\n        \n        require(_startBlock > block.number, \"Start should be greater than current time!\");\n        \n        require(!AuctionsMap[_auctionid].exists, \"Auction already exists!\");\n        \n        auctionObj = AuctionLib.Auction({\n            name : _name,\n            reserve : _reserve,\n            startBlock : _startBlock,\n            endBlock : _endBlock,\n            owner : msg.sender,\n            auctId : _auctionid,\n            exists : true,\n            totalBids : 0,\n            bidders : new address[](0x0),\n            ipfsHash : _ipfsHash,\n            highestBid : 0,\n            highestBidder : 0x0,\n            associatedBank : _associatedBank,\n            winner : 0x0,\n            status : AuctionLib.Status.STARTED,\n            totalValue : _totalValue * 10**18\n        });\n        \n        AllAuctionIds.push(_auctionid);\n        \n        AuctionsMap[_auctionid] = auctionObj;\n        \n        FarmerAuctionsMap[msg.sender].push(_auctionid);\n        \n        users[msg.sender].auctionIds.push(_auctionid);\n\n        uint statusInt = uint(AuctionsMap[_auctionid].status);\n\n        emit LogAuctionAdd(_auctionid, msg.sender,statusInt);\n    }\n    \n    function placeBid(string _auctionid) \n    external\n    onlyAuctionExists(_auctionid)\n    onlyStartedAuction(_auctionid)\n    onlyNotCancelledAuction(_auctionid)    \n    onlyAfterStartAuction(_auctionid)\n    onlyBeforeEndAuction(_auctionid)\n    shouldHaveValue\n    payable{\n        \n\n        // Increase the bidding amount\n        uint newBid = BidderFundsMap[_auctionid][msg.sender] + msg.value;\n        \n        // check if bid value is greater than the highest bid value\n        require(newBid >= AuctionsMap[_auctionid].highestBid, \"Bidding amount should be greater than the highest bid!\");\n        \n\n        //update highest bid\n        AuctionsMap[_auctionid].highestBid = newBid;\n\n        //update highest bidder\n        AuctionsMap[_auctionid].highestBidder = msg.sender;\n\n        // Update the bidder fund\n        BidderFundsMap[_auctionid][msg.sender] = newBid;\n\n        // If he is new bidder\n        if(!AuctionsMap[_auctionid].alreadyBidded[msg.sender]){\n            // Push into bidder list\n            AuctionsMap[_auctionid].bidders.push(msg.sender);   \n        }\n\n        // Total unique bidders\n        AuctionsMap[_auctionid].totalBids = AuctionsMap[_auctionid].bidders.length;\n\n        AuctionsMap[_auctionid].alreadyBidded[msg.sender] = true;\n        \n        emit LogBidPlace(_auctionid, msg.sender, msg.value);\n    }\n    \n    // function cancelAuction(string _auctionid) external\n    // onlyAuctionExists(_auctionid)\n    // onlyOwner(_auctionid){\n    //     AuctionsMap[_auctionid].isCancelled = true;\n    //     emit LogAuctionCancel(_auctionid, msg.sender);\n    // }\n    \n\n    // function closeAuction(string _auctionid) external\n    // onlyAuctionExists(_auctionid)\n    // onlyAfterEndAuction(_auctionid)\n    // onlyIfAuctionActive(_auctionid)\n    // onlyOwner(_auctionid)\n    // onlyNotCancelledAuction(_auctionid){\n    //     // deactivate the auction\n    //     AuctionsMap[_auctionid].isActive = false;\n    //     AuctionsMap[_auctionid].winner = AuctionsMap[_auctionid].highestBidder;\n    //     emit LogAuctionClose(_auctionid, msg.sender);\n\n    // }\n\n    // // called only by highest bidder\n    // function sendAcknowledgement(string _auctionid, bool _isDelivered) external\n    // onlyAuctionExists(_auctionid)\n    // onlyAfterEndAuction(_auctionid)\n    // onlyNotCancelledAuction(_auctionid){\n    //     require(AuctionsMap[_auctionid].highestBidder == msg.sender, \"Caller is not the highestBidder!\");\n    //     if(_isDelivered){\n    //         // Product delivered by farmer \n    //         // Make productReceived true\n    //         AuctionsMap[_auctionid].isProductReceived = true;\n    //         // Increase the credit score of farmer by 1\n    //         users[AuctionsMap[_auctionid].owner].creditScore += 1;\n    //         // Emit the log\n    //         emit LogProductReceived(_auctionid, msg.sender, true);\n    //     }else{\n    //         // Product did not deliver by farmer \n    //         // Decrease the credit score of farmer by 1\n    //         users[AuctionsMap[_auctionid].owner].creditScore -= 1;\n    //         // Emit the log\n    //         emit LogProductReceived(_auctionid, msg.sender, false);\n    //     }\n        \n    // }\n\n    // function withdrawBid(string _auctionid) external\n    // onlyAuctionExists(_auctionid)\n    // onlyAfterEndAuction(_auctionid){\n    //     //require(AuctionsMap[_auctionid].isProductReceived, \"Product has not yet received!\");\n    //     uint val = 0;\n    //     bool sent = false;\n    //     if(msg.sender == AuctionsMap[_auctionid].associatedBank && AuctionsMap[_auctionid].isProductReceived){\n    //         // transfer money to bank\n    //         //emit LogBidWithdraw(_auctionid, msg.sender, bidVal);\n    //         // sent = true\n    //     }else if(msg.sender == AuctionsMap[_auctionid].owner && AuctionsMap[_auctionid].isProductReceived){\n    //         val = AuctionsMap[_auctionid].highestBid;\n    //         // transfer money to farmer\n    //         AuctionsMap[_auctionid].owner.transfer(val);\n    //         sent = true;\n\n    //     }else if(AuctionsMap[_auctionid].alreadyBidded[msg.sender] && msg.sender != AuctionsMap[_auctionid].highestBidder){\n    //         // transfer money to other bidders \n    //         val = BidderFundsMap[_auctionid][msg.sender];\n    //         if(val > 0){\n    //             msg.sender.transfer(val);\n    //             BidderFundsMap[_auctionid][msg.sender] = 0;\n    //             sent = true;\n    //         }\n    //     }\n\n    //     if(sent){\n    //         emit LogBidWithdraw(_auctionid, msg.sender, val);\n    //     }\n    // } \n\n    function getAllAuctions() public view returns(string commaSepBidIds){\n        return convertArrayToString(AllAuctionIds);\n    }\n    \n    function getAuctionDetById(string _auctionid) public \n    view \n    onlyAuctionExists(_auctionid)\n    returns(string name, address owner, \n    uint status, uint reserve,\n    uint highestBid, address highestBidder, \n    address winner, address associatedBank){\n        name = AuctionsMap[_auctionid].name;\n        owner = AuctionsMap[_auctionid].owner;\n        status = uint(AuctionsMap[_auctionid].status);\n        reserve = AuctionsMap[_auctionid].reserve;\n        highestBid = AuctionsMap[_auctionid].highestBid;\n        highestBidder = AuctionsMap[_auctionid].highestBidder;\n        winner = AuctionsMap[_auctionid].winner;\n        associatedBank = AuctionsMap[_auctionid].associatedBank;\n    }\n\n    //helper method to convert all values of an array in pipe separated\n    function convertArrayToString(string []arr) internal pure returns(string arrConvertedToStr){\n        var parts = new strings.slice[](arr.length);\n        for (uint32 i = 0; i < arr.length; i++) {\n            parts[i] =arr[i].toSlice();\n        }\n        arrConvertedToStr = \"|\".toSlice().join(parts);   \n    }\n\n   \n}",
  "sourcePath": "/home/vishwasb/vab/projects/gramdhan/contracts/AuctionStore.sol",
  "compiler": {
    "name": "solc",
    "version": "0.4.24+commit.e67f0147.Emscripten.clang"
  },
  "schemaVersion": "2.0.0",
  "updatedAt": "2018-09-05T09:50:01.679Z"
}