{
  "contractName": "Authentication",
  "abi": [
    {
      "constant": true,
      "inputs": [
        {
          "name": "",
          "type": "address"
        }
      ],
      "name": "users",
      "outputs": [
        {
          "name": "name",
          "type": "string"
        },
        {
          "name": "isfarmer",
          "type": "bool"
        },
        {
          "name": "creditScore",
          "type": "int256"
        },
        {
          "name": "exists",
          "type": "bool"
        }
      ],
      "payable": false,
      "stateMutability": "view",
      "type": "function"
    },
    {
      "inputs": [],
      "payable": false,
      "stateMutability": "nonpayable",
      "type": "constructor"
    },
    {
      "constant": true,
      "inputs": [],
      "name": "login",
      "outputs": [
        {
          "name": "",
          "type": "string"
        }
      ],
      "payable": false,
      "stateMutability": "view",
      "type": "function"
    },
    {
      "constant": false,
      "inputs": [
        {
          "name": "name",
          "type": "string"
        },
        {
          "name": "_isFarmer",
          "type": "bool"
        },
        {
          "name": "_creditScore",
          "type": "int256"
        }
      ],
      "name": "signup",
      "outputs": [],
      "payable": false,
      "stateMutability": "nonpayable",
      "type": "function"
    },
    {
      "constant": true,
      "inputs": [
        {
          "name": "_userAddr",
          "type": "address"
        }
      ],
      "name": "getUser",
      "outputs": [
        {
          "name": "exists",
          "type": "bool"
        },
        {
          "name": "isFarmer",
          "type": "bool"
        },
        {
          "name": "name",
          "type": "string"
        }
      ],
      "payable": false,
      "stateMutability": "view",
      "type": "function"
    }
  ],
  "bytecode": "0x608060405234801561001057600080fd5b50610b3f806100206000396000f300608060405260043610610062576000357c0100000000000000000000000000000000000000000000000000000000900463ffffffff1680636f77926b14610067578063a6d491f014610139578063a87430ba146101b8578063b34e97e814610291575b600080fd5b34801561007357600080fd5b506100a8600480360381019080803573ffffffffffffffffffffffffffffffffffffffff169060200190929190505050610321565b60405180841515151581526020018315151515815260200180602001828103825283818151815260200191508051906020019080838360005b838110156100fc5780820151818401526020810190506100e1565b50505050905090810190601f1680156101295780820380516001836020036101000a031916815260200191505b5094505050505060405180910390f35b34801561014557600080fd5b506101b6600480360381019080803590602001908201803590602001908080601f0160208091040260200160405190810160405280939291908181526020018383808284378201915050505050509192919290803515159060200190929190803590602001909291905050506104ae565b005b3480156101c457600080fd5b506101f9600480360381019080803573ffffffffffffffffffffffffffffffffffffffff169060200190929190505050610684565b60405180806020018515151515815260200184815260200183151515158152602001828103825286818151815260200191508051906020019080838360005b83811015610253578082015181840152602081019050610238565b50505050905090810190601f1680156102805780820380516001836020036101000a031916815260200191505b509550505050505060405180910390f35b34801561029d57600080fd5b506102a6610766565b6040518080602001828103825283818151815260200191508051906020019080838360005b838110156102e65780820151818401526020810190506102cb565b50505050905090810190601f1680156103135780820380516001836020036101000a031916815260200191505b509250505060405180910390f35b6000806060600560008573ffffffffffffffffffffffffffffffffffffffff1673ffffffffffffffffffffffffffffffffffffffff16815260200190815260200160002060040160009054906101000a900460ff169250600560008573ffffffffffffffffffffffffffffffffffffffff1673ffffffffffffffffffffffffffffffffffffffff16815260200190815260200160002060010160009054906101000a900460ff169150600560008573ffffffffffffffffffffffffffffffffffffffff1673ffffffffffffffffffffffffffffffffffffffff1681526020019081526020016000206000018054600181600116156101000203166002900480601f0160208091040260200160405190810160405280929190818152602001828054600181600116156101000203166002900480156104a05780601f10610475576101008083540402835291602001916104a0565b820191906000526020600020905b81548152906001019060200180831161048357829003601f168201915b505050505090509193909250565b60a0604051908101604052808481526020018315158152602001828152602001600060405190808252806020026020018201604052801561050357816020015b60608152602001906001900390816104ee5790505b5081526020016001151581525060008082015181600001908051906020019061052d9291906108a3565b5060208201518160010160006101000a81548160ff021916908315150217905550604082015181600201556060820151816003019080519060200190610574929190610923565b5060808201518160040160006101000a81548160ff0219169083151502179055509050506000600560003373ffffffffffffffffffffffffffffffffffffffff1673ffffffffffffffffffffffffffffffffffffffff16815260200190815260200160002060008201816000019080546001816001161561010002031660029004610600929190610983565b506001820160009054906101000a900460ff168160010160006101000a81548160ff02191690831515021790555060028201548160020155600382018160030190805461064e929190610a0a565b506004820160009054906101000a900460ff168160040160006101000a81548160ff021916908315150217905550905050505050565b6005602052806000526040600020600091509050806000018054600181600116156101000203166002900480601f0160208091040260200160405190810160405280929190818152602001828054600181600116156101000203166002900480156107305780601f1061070557610100808354040283529160200191610730565b820191906000526020600020905b81548152906001019060200180831161071357829003601f168201915b5050505050908060010160009054906101000a900460ff16908060020154908060040160009054906101000a900460ff16905084565b6060600560003373ffffffffffffffffffffffffffffffffffffffff1673ffffffffffffffffffffffffffffffffffffffff16815260200190815260200160002060040160009054906101000a900460ff1615156107c357600080fd5b600560003373ffffffffffffffffffffffffffffffffffffffff1673ffffffffffffffffffffffffffffffffffffffff1681526020019081526020016000206000018054600181600116156101000203166002900480601f0160208091040260200160405190810160405280929190818152602001828054600181600116156101000203166002900480156108995780601f1061086e57610100808354040283529160200191610899565b820191906000526020600020905b81548152906001019060200180831161087c57829003601f168201915b5050505050905090565b828054600181600116156101000203166002900490600052602060002090601f016020900481019282601f106108e457805160ff1916838001178555610912565b82800160010185558215610912579182015b828111156109115782518255916020019190600101906108f6565b5b50905061091f9190610a7a565b5090565b828054828255906000526020600020908101928215610972579160200282015b828111156109715782518290805190602001906109619291906108a3565b5091602001919060010190610943565b5b50905061097f9190610a9f565b5090565b828054600181600116156101000203166002900490600052602060002090601f016020900481019282601f106109bc57805485556109f9565b828001600101855582156109f957600052602060002091601f016020900482015b828111156109f85782548255916001019190600101906109dd565b5b509050610a069190610a7a565b5090565b828054828255906000526020600020908101928215610a695760005260206000209182015b82811115610a685782829080546001816001161561010002031660029004610a58929190610983565b5091600101919060010190610a2f565b5b509050610a769190610a9f565b5090565b610a9c91905b80821115610a98576000816000905550600101610a80565b5090565b90565b610ac891905b80821115610ac45760008181610abb9190610acb565b50600101610aa5565b5090565b90565b50805460018160011615610100020316600290046000825580601f10610af15750610b10565b601f016020900490600052602060002090810190610b0f9190610a7a565b5b505600a165627a7a7230582062a74f74935578bba649cb0ba6d70ee7a8fca26ad012db4255a64c5925e8a98d0029",
  "source": "pragma solidity ^0.4.7;\n\ncontract Authentication  {\n  \n  struct User{\n    string name;\n    bool isfarmer;\n    int creditScore; // can accept -ve values\n    string[] auctionIds;\n    bool exists;\n  }\n\n  User userObj;\n  mapping (address => User) public users;\n\n  uint private id; // Stores user id temporarily\n\n  modifier onlyExistingUser {\n    // Check if user exists or terminate\n\n    require(users[msg.sender].exists);\n    _;\n  }\n\n  // modifier onlyValidName(string name) {\n  //   // Only valid names allowed\n\n  //   require(!(name == 0x0));\n  //   _;\n  // }\n  \n  modifier shouldHaveValue(){\n      require(msg.value > 0);\n      _;\n  }\n  \n  modifier onlyFarmer(){\n      require(users[msg.sender].isfarmer, \"Caller is not a farmer!\");\n      _;\n  }\n  \n  constructor() public{      \n  }\n\n  function login() constant\n  public\n  onlyExistingUser\n  returns (string) {\n    return (users[msg.sender].name);\n  }\n\n  function signup(string name, bool _isFarmer, int _creditScore)\n  public{\n    // Check if user exists.\n    // If yes, return user name.\n    // If no, check if name was sent.\n    // If yes, create and return user.\n\n    userObj = User({\n            name : name,\n            isfarmer : _isFarmer,\n            creditScore : _creditScore,\n            auctionIds : new string [] (0),\n            exists : true\n        });\n        \n    users[msg.sender] = userObj;\n  }\n\n  // function update(string name)\n  // public\n  // onlyValidName(name)\n  // onlyExistingUser\n  // returns (string) {\n  //   // Update user name.\n    \n  //   if (users[msg.sender].name != 0x0)\n  //   {\n  //       users[msg.sender].name = name;\n\n  //       return (users[msg.sender].name);\n  //   }\n  // }\n\n  function getUser(address _userAddr) public view returns(bool exists, bool isFarmer, string name){\n    exists = users[_userAddr].exists;\n    isFarmer = users[_userAddr].isfarmer;\n    name = users[_userAddr].name;\n  }\n}\n",
  "sourcePath": "/home/vishwasb/vab/projects/gramdhan/contracts/Authentication.sol",
  "compiler": {
    "name": "solc",
    "version": "0.4.24+commit.e67f0147.Emscripten.clang"
  },
  "schemaVersion": "2.0.0",
  "updatedAt": "2018-09-05T09:50:01.667Z"
}